:1000000000300020352A0000DD2C0000DF2C00002D
:1000100000000000000000000000000000000000E0
:10002000000000000000000000000000E12C0000C3
:100030000000000000000000E32C0000812100000F
:10004000C12C0000C12C0000C12C0000C12C0000FC
:10005000C12C0000C12C0000C12C0000C12C0000EC
:10006000792C0000812C0000892C0000912C0000CC
:10007000992C0000A12C00000D290000C12C0000CB
:10008000C12C0000C12C0000C12C0000B12B0000CD
:10009000A92C0000C12C0000C12C0000C12C0000C4
:1000A000C12C0000C12C0000C12C0000C12C00009C
:1000B000C12C0000C12C0000B12C0000B92C0000A4
:1000C000F446002804D4494200F013F84042604747
:1000D0004042002905D45FD000F00BF8404249426D
:1000E0006047494200F005F84942604703460B4328
:1000F000E6D40022030A8B420BD203098B4219D2A9
:1001000043088B422ED2411A00D20146524110467A
:100110007047FF2209023FD012068B4205D312120C
:1001200009028B4201D31212090203098B4219D32F
:1001300000E0090AC3098B4201D3CB01C01A524126
:1001400083098B4201D38B01C01A524143098B4270
:1001500001D34B01C01A524103098B4201D30B0159
:10016000C01A5241C3088B4201D3CB00C01A52417E
:1001700083088B4201D38B00C01A524143088B4243
:1001800001D34B00C01A5241884200D3401A524159
:10019000CFD201461046704708B500F0F5FB08BD08
:10040000FFFFFFFFFFFFFFFFFFFFFFFFFFFFFEFFFD
:10041000F8B50400002C01D104204AE0606A984934
:10042000FFF767FE05006D1E96480178490614D453
:1004300095490978090610D53F210278C023134059
:100440000A002A401A430270007808402A00D2B2FB
:10045000114088420BD079202BE03F2100780840E2
:100460002A00D2B21140884201D0792021E0002632
:100470002660802080026060012020728020800041
:10048000E0602661200000F0BCF900280FD0E66291
:100490007E4820637E48606320002C30606120002D
:1004A00000F008F80700002F01D0380001E0A66234
:1004B0000020F2BD38B5040025002C35002C02D0F8
:1004C0006069002801D1042008E0200000F005F94F
:1004D000200000F062F902202860002032BDFFB544
:1004E00089B0050002AA0A99280000F0B8F90600B0
:1004F000002E01D030004EE0069B0B9A0A9928008E
:1005000000F090F90400002C01D0200043E00C988A
:1005100000F0CBF90600002E01D030003BE0029C39
:10052000039800900B9827187F1E38000099FFF75A
:10053000E0FD00290AD038000099FFF7DAFD401CE1
:100540000190019800994843401E070000212800AF
:1005500000F046F9A7421AD330204B4908700A220E
:10056000210C002000F0C6F8220A2100012000F032
:10057000C1F8280000F0CCF806002869002801D056
:1005800028698047002E02D100982418E2E728004D
:1005900000F01FF930000DB0F0BDF1B588B00D00CE
:1005A00014001E00002C01D1042065E001AA2900DE
:1005B000089800F054F900900098002801D00098A5
:1005C0005AE0049B32002900089800F02BF907003C
:1005D000002F01D038004FE00021089800F000F90A
:1005E000002E45D03020284908700622290C002012
:1005F00000F080F82A0A2900012000F07BF820682A
:10060000020A2168022000F075F82068020E2068B6
:10061000010C032000F06EF80498042804D1089817
:1006200000F076F8070014E00498082811D1241D82
:100630002068020A2168042000F05CF82068020E9D
:100640002068010C052000F055F8089800F060F8CB
:100650000700241D08980069002802D00898006946
:100660008047002F04D104982D180498361AB7E754
:10067000089800F0AEF8380009B0F0BD00000000A6
:1006800040420F00030002400500024030F0FF1F0F
:1006900070F0FF1F30B503000024002B01D10420AF
:1006A0001AE00800C0B2002805280FD9213802D06E
:1006B000401F09D00DE0002A03D0012A01D0772085
:1006C0000AE01000987206E05A6204E07620040006
:1006D00001E06A200400200030BDF8B50400206B62
:1006E00000900C25764E009F2A003100380000F063
:1006F00013F9F1BD10B403005B075B0F714C23705D
:100700000B00714C23701300704C237010BC7047A9
:1007100070B504006E4E30203070200000F071F88B
:100720000500002D01D028001BE0206B401C206339
:100730006849206B0860300009688847206B401EBC
:1007400020633178880601D567200AE0C80601D504
:10075000682006E08807800F002801D0692000E0AB
:10076000002070BDF7B504001E00089D2000343045
:10077000009000980068401C00990860564F606B1C
:1007800038602B003200029901983F68B847009802
:100790000068401E00990860F7BDF8B5040020000D
:1007A000343000901C254D4E009807682A00310017
:1007B000380000F0B1F8F1BD38B505003F4C01201C
:1007C00000900A238022D20021002800FFF7CAFFF0
:1007D00031BD10B504000121200000F001F810BD6A
:1007E00070B505000C00280000F00BF80600002E84
:1007F00006D12000C0B2012802D12800FFF7DCFF9B
:1008000070BD00B50100002901D1042009E04A694A
:100810004869002804D01068022801D1002000E0B7
:100820006D2000BD30B50400002C01D1042015E07E
:10083000581E0840002803D1581E1040002801D03F
:1008400065200BE02068814207D320686568401965
:100850008D18A84201D3002000E0662030BDF3B51A
:1008600081B004001500002C01D0002D01D104201E
:100870001AE01C20009000262F003200009938005A
:1008800000F058F802982168401A2860E068686013
:100890006068217AFFF72DFCA8600820E86004203A
:1008A00028616861A8610020FEBD00B501000C4808
:1008B000814201D06B2000E0002000BD0C3000F030
:1008C000EC2B000001000240080002400900024039
:1008D0000500024028F0FF1F2CF0FF1F182B00001E
:1008E0006B66656B70B4103A03D378C9103A78C060
:1008F000FBD2530701D318C918C001D508C908C0D5
:10090000D20704D30B880380891C801C002A01D5E0
:100910000B78037070BC70478B0701D18307E1D05F
:10092000124205D00B78491C0370401C521EF9D1AD
:10093000704701001206130A1A43130C1A4300BF32
:10094000094205D0830707D00270401C491EF9D127
:10095000704700000022FFE71300103906D330B4BF
:100960001400150010393CC0FCD230BC490700D33C
:100970000CC000D504C0890002D30280801C00296D
:1009800000D502707047010070470100F8B584B0CF
:1009900006000C0017003800C0B2012801D0012069
:1009A0001BE0254D2F7404980090019400216846A7
:1009B0000A0002720A004272012213008372C2729C
:1009C0000A000273417386736946280000F00CFA2E
:1009D0001A48A8601A48E860002005B0F0BD0EB4BF
:1009E00078B50500002605AC2100280000F005F8C8
:1009F00001B0039970BC04B0084770B505000C0045
:100A000000260D48007C002802D10020C04304E0ED
:100A1000220029000B4800F064F870BD01B50648BB
:100A2000017C002902D10020C04304E00122694674
:100A300083689847012002BD14F0FF1F2F0F0000AC
:100A4000CB0E00001D0A0000F7B504001F00089D32
:100A5000019E0298864207DA2000C0B2A847386893
:100A6000401C3860761CF4E7F7BDFBB586B000206B
:100A70000700069903000B704C1C0590049003902E
:100A80000290010000900500019007980668002E72
:100A900004D1302020707F1C380020E0002E1DD0B3
:100AA00030000899FFF725FB00900098089948430B
:100AB000301A0A2802D20500303508E00EA909785C
:100AC000002901D0412100E0612145180A3D00982C
:100AD000060028002070641C7F1CDFE7380009B086
:100AE000F0BDF3B597B014000020049000200390EF
:100AF0000020029000206946487100200590189E51
:100B00003078002801D1029863E130780500280090
:100B1000C0B2252808D02800C0B21799884702988B
:100B2000401C0290761CEBE7012001006A4691719F
:100B30000021069100216A46117169460979002950
:100B400018D1761C31780D002900C9B230290CDB90
:100B50002900C9B23A2908DA06990A2251432A0023
:100B6000D2B2891830390691E7E7761E01006A464D
:100B70001171E2E7711C0A782E2A21D10022079216
:100B800000226B461A716A461279002A19D1491C53
:100B90000A7815002A00D2B2302A0CDB2A00D2B221
:100BA0003A2A08DA079A0A235A432B00DBB2D218F2
:100BB000303A0792E7E7491E02006B461A71E2E7F6
:100BC000491E481C0A900A98007805002800C0B207
:100BD000642824D02800C0B2692820D02800C0B2E0
:100BE00066281CD02800C0B2462818D02800C0B201
:100BF000782814D02800C0B2582810D02800C0B2DD
:100C00006F280CD02800C0B2622808D02800C0B2DB
:100C1000702804D02800C0B2752800D0A1E02800B8
:100C2000C0B2642803D02800C0B2692810D120685F
:100C3000241D08906846807900900A23012208A9A3
:100C40000DA8FFF712FF03900DA803994018049018
:100C50002800C0B2582803D02800C0B2782817D185
:100C60002800C0B2782802D1002069468871206827
:100C7000241D05906846807900901023002205A964
:100C80000DA8FFF7F2FE03900DA8039940180490F9
:100C90002800C0B26F280BD02800C0B2622807D04D
:100CA0002800C0B2702803D02800C0B275283ED1F9
:100CB0002800C0B270280DD12068241D00900420A7
:100CC0000C9068460B9005AE0C9A0B993000FFF71C
:100CD00023FE02E02068241D05902800C0B262288F
:100CE0000AD06F2804D070280AD075280CD00FE0E5
:100CF0000820694648710BE002206946487107E008
:100D000010206946487103E00A2069464871FFE7F0
:100D100068468079009068464379002205A90DA8AD
:100D2000FFF7A3FE03900DA80399401804901798AD
:100D3000009002AB069A03992020FFF785FE0498E5
:100D4000002843D00498007800283FD00498007809
:100D5000179988470498401E04900298401C0290FE
:100D6000F0E72800C0B2632809D12068241D09904B
:100D70000998179988470298401C029026E028009D
:100D8000C0B273281BD12068241D0700002F1DD07E
:100D9000380000F00FF903901798009002AB069A04
:100DA00003992020FFF750FE387800280ED03878BD
:100DB000179988477F1C0298401C0290F4E728008E
:100DC000C0B2179988470298401C02900A98461CA6
:100DD00096E619B0F0BD010000B50100002901D16F
:100DE000002000E06A4800BD7FB506000C00002E20
:100DF00006D1E1226749684800F0E4F800BF00BF6F
:100E0000002C06D1E2226349644800F0DBF800BF01
:100E100000BFA07B032806D3E3225E49604800F0B0
:100E2000D1F800BF00BF5F4DA07B04214843285884
:100E3000002806D1E42257495B4800F0C3F800BF00
:100E400000BF684600F085F960680090207A0228AB
:100E500003D102206946087109E0207A032803D1F2
:100E600003206946087102E0002069460871607A33
:100E7000012803D101206946487102E0002069463B
:100E80004871A07A002801D0012000E000206946C6
:100E90000872E07A002801D0012000E00020C8712B
:100EA00022686946A07B04235843285800F0BAF80A
:100EB0000500002D03D02800FFF78EFF03E031006E
:100EC000A07B0870002004B070BDF8B507000D00CD
:100ED0001400002F07D1FF2240322E492E4800F087
:100EE00071F800BF00BF002D07D1A0225200294990
:100EF0002E4800F067F800BF00BF002C07D1FF228A
:100F0000423224492A4800F05DF800BF00BF009734
:100F1000220029002348009B1B7804267343C058F5
:100F200000F07CF906003000FFF756FFF2BDF8B57F
:100F300006000D001400002E07D1AA225200154908
:100F4000154800F03FF800BF00BF002D07D1FF2279
:100F500056321049154800F035F800BF00BF002C8C
:100F600007D1AB2252000B49114800F02BF800BF0B
:100F700000BF3700220029000A4884463B7804203D
:100F800043436046C05800F033F90020F2BD000032
:100F9000AF2F0000E8260000402C0000482C000085
:100FA00038270000D42B0000842A0000502C0000B9
:100FB000582C0000431C0178401C0942FBD1C01A88
:100FC0007047010070B506000D00140023002A00D0
:100FD00031000248FFF703FD00BEFDE7E0290000F5
:100FE000010C6D4A89180A680123834013430B6082
:100FF000704770B5060003250024AC4207D267484D
:10100000042161434058B04201D0641CF5E7AC4272
:1010100006D38E2262496348FFF7D4FF00BF00BFAA
:10102000200070BDFEB506000D001700002D06D192
:10103000D7225B496C48FFF7C5FF00BF00BF286897
:10104000002806D1D82256496848FFF7BBFF00BFE9
:1010500000BF0020009001006A4611720190380024
:10106000296810225143FFF744F80400002C01D1F5
:1010700001200400380010216143FFF73AF8296885
:10108000401A01902968009138002100491C102263
:101090005143FFF72EF80099081A019988420CD2A3
:1010A0002968009138002100491C10225143FFF7A4
:1010B00020F80099081A0190641C28686421FFF741
:1010C00018F8032148430199884201D251483FE072
:1010D0003000FFF78EFF5049042250430858FFF7B5
:1010E0007FFFF078F3210140F1703078E02101407A
:1010F000200A0843307020007070B078E822024067
:101100000420A9798B000100194011432A79002A93
:1011100003D02A790A4310211143B1703278DF23BA
:1011200013409C466A79520120231A4063461A43B1
:101130003270F278EB79002B02D0110008220A43BA
:10114000297A002902D0110002000A43F27000201F
:10115000FEBDF8B50400002C07D1FF2290321049E3
:101160002148FFF72FFF00BF00BF0C250026009687
:101170002700009A29003800FFF7DCFBE12040023D
:10118000206030002071300060713000A0713000AC
:10119000E0712672F1BD000000800440282C0000A0
:1011A0008C280000342B000001000A7948790002E5
:1011B0001043704770B505000C0068798606B60EBE
:1011C000200A30436871E006C00E002801D028795B
:1011D000E8792800FFF7E8FF2040002801D03D48CB
:1011E00000E0002070BD0000102C0000502B00001B
:1011F00000B503001000421E002806D01879000632
:10120000FCD50878D871491CF4E718794006FCD55C
:10121000002000BDF5030000342C0000F8B50400E8
:101220000E001700002E06D1294A27492748FFF74C
:10123000C9FE00BF00BF00253800471E002840D06F
:101240002079800637D42000FFF7AEFF0090009889
:10125000000709D508212000FFF7ACFF002801D1C5
:101260001D4D00E01B4D26E00098C00709D5012167
:101270002000FFF79FFF002802D1FD25AD0000E010
:10128000144D0098800708D502212000FFF792FF37
:10129000002801D1114D00E00E4D0098400708D5FF
:1012A00004212000FFF786FF002801D10C4D00E04B
:1012B000084D002DC4D0002D03D1E0793070761C8C
:1012C000BAE72800F2BD00008C2800001C2C0000AA
:1012D0003E030000EE030000F1030000F3030000F2
:1012E000F203000080B5084801680848084A1268FF
:1012F000904701BD000080B5034841680548044A95
:101300001268904701BD0000C0F0FF1F00A006401A
:10131000CCF0FF1F00B00640010C684A89180A682B
:101320000123834013430B60704738B50500002448
:10133000022C07D26248042161434058A84201D0E0
:10134000641CF5E7022C06D384225E495E48FFF751
:1013500039FE00BF00BF200032BD38B505000C00CB
:101360002800FFF7E2FF59490C5431BDF4B50500E0
:101370000C00002601272800FFF7D7FF00998E42B6
:101380000CD2002C03D021786971641C02E04F4913
:10139000095C69713900C9B27618EFE7F1BDF4B59F
:1013A00005000C0000260127009886420CD2002C74
:1013B00003D068792070641C02E0280000F0C9F8AE
:1013C0003800C0B23618EFE7F1BDF8B504000C25BF
:1013D000002600962700009A29003800FFF7AAFA95
:1013E00001202070300060703000A0703000E0708C
:1013F00030002071A671032060713548A060F1BDF6
:10140000F8B505000C001600002C01D0002E07D105
:10141000FF22C0322B497348FFF7D4FD00BF00BF45
:101420002800FFF782FF7049042250430858FFF755
:1014300073FF2878BF210140297008220120102164
:10144000A378DB0017001F40BC46E3789B0004270D
:101450003B4067463B439C4663795F0002231F4045
:1014600063461F43BC46277903003B4067463B4326
:101470000B432B706379DBB25B081B011940A37926
:10148000DBB25B08DB001A400A4361784900114374
:10149000A2791040084368703200A168280000F06B
:1014A00019F8FF212800FFF758FF2078002803D003
:1014B0002878402101432970F1BD000000800440DC
:1014C000682C00004C280000CC2800009CF5FF1F71
:1014D00020A10700F7B585B0069802900026F643D4
:1014E00007200490082003900027082F25D2002E03
:1014F00023D00220050000200400092C1BD2002E5E
:1015000019D007983900491C6943FEF7F2FD019094
:101510000298019988420AD302980199401A0090D2
:101520000098B04203D2009806000497039402206A
:101530004543641CE1E77F1CD7E703980007000FD1
:101540000499090170220A4002430598827008B08C
:10155000F0BD01000022487980B2704770B50500E7
:101560000C00002C07D1E522920020492048FFF70B
:1015700029FD00BF00BF01262068002804D1606853
:10158000002801D104202BE0A068002827D0E878AB
:101590008006FCD53200D2B221682800FFF7E6FEB3
:1015A0002068002804D020683100C9B240182060AB
:1015B000E8780006FCD53200D2B261682800FFF757
:1015C000EEFE6068002804D060683100C9B240189F
:1015D0006060A0683100C9B2401AA060D4E7002062
:1015E00070BD00000C2A0000702C00004C28000088
:1015F000042C000038B504000D002078C00608D582
:101600001C4804216943415820001B4A1268904736
:1016100007E018480421694341582000144A126821
:10162000904731BD80B513480068002806D1134AA1
:101630000E491348FFF7C6FC00BF00BF0021114848
:10164000FFF7D8FF01BD000080B50A4840680028B8
:1016500006D10D4A05490D48FFF7B4FC00BF00BF95
:1016600001210B48FFF7C6FF01BD00004C28000018
:10167000BCF0FF1FB0F0FF1FB8F0FF1FDA0500003D
:10168000882B000000600740E30500009C2B000051
:10169000007007407FB505000124260000220021CC
:1016A000002000F00BFA01220121002000F006FAD0
:1016B000684684706846FFF788FE022000F0D8FA7A
:1016C000020069462800FFF79BFE3000C0B204B05C
:1016D00070BD38B5050001242800C0B2002805D12E
:1016E00000220321082000F0E9F90BE02800C0B235
:1016F000012805D101220321082000F0DFF901E0D3
:10170000002004002000C0B232BD12B585B0040034
:1017100000206946087001A81021FFF71BF905A8F1
:101720000190684602900120039001A92000FFF774
:1017300015FF6846007806B010BD38B504000125D5
:101740000020FFF7C6FF06212000FFF7DEFF012083
:10175000FFF7BFFF2800C0B232BDF8B50600012474
:10176000270000250020FFF7B4FF05213000FFF718
:10177000CCFFA5213000FFF7C8FF05002800C0B24C
:1017800020400028F5D10120FFF7A3FF3800C0B2A8
:10179000F2BDF8B584B004000E001700012520004A
:1017A000FFF7CBFF0020FFF794FF02212000FFF797
:1017B000ACFF3900090CC9B22000FFF7A6FF390AB7
:1017C000C9B22000FFF7A1FF3900C9B22000FFF71E
:1017D0009CFF68461021FFF7BDF80096002001909D
:1017E0006846008A029069462000FFF7B7FE012094
:1017F000FFF76FFF2000FFF7B0FF2800C0B205B071
:10180000F0BDF9B583B00D001400012069460871E0
:10181000002001006A46517101006A4651700100C2
:101820006A46917001006A4611706946C8702000CE
:1018300069468870002069468978401A69460870B0
:1018400080277F006846008A3900FEF74FFC0600BB
:101850006846008A3900FEF749FC684641706846D0
:101860008078002825D13000C0B2002807D1684612
:10187000038A220029000398FFF78BFF88E03000DD
:10188000461EC0B200280BD03800030022002900F9
:101890000398FFF77EFFE419802040002D18EEE743
:1018A000684643789BB2220029000398FFF771FF36
:1018B0006EE03000C0B200282BD16846007869463F
:1018C000497888421DD26846407869460978401AAE
:1018D0006946C870684603789BB2220029000398C5
:1018E000FFF757FF684600782418684600782D18DF
:1018F0006846C3789BB2220029000398FFF749FF8E
:1019000046E06846038A220029000398FFF741FF5A
:101910003EE06846008A69460978401A69460882AE
:101920006846008A3900FEF7E1FB06006846008A37
:101930003900FEF7DBFB68464170684603789BB2CE
:10194000220029000398FFF724FF68460078241836
:10195000684600782D183000461EC0B200280BD013
:1019600038000300220029000398FFF712FFE41952
:10197000802040002D18EEE768464078002807D008
:10198000684643789BB2220029000398FFF701FFC5
:101990006846007905B0F0BDF8B584B004000E00CB
:1019A000170001250020FFF794FE03212000FFF718
:1019B000ACFE3900090CC9B22000FFF7A6FE390AB7
:1019C000C9B22000FFF7A1FE3900C9B22000FFF71D
:1019D0009CFE68461021FEF7BDFF00200090019696
:1019E0006846008A029069462000FFF7B7FD012093
:1019F000FFF76FFE2800C0B205B0F0BDF8B50700D4
:101A00000C001600002E06D151224B494B48FFF71F
:101A1000D9FA00BF00BF3800C0B2800869464870DC
:101A2000B807800F6946087045486946497804221E
:101A300051434558307800281CD101236A692000A1
:101A4000C0B2844668460178082041436046411888
:101A50001800884082436A61AA692000C0B28446A7
:101A600068460178082041436046401883409A4305
:101A7000AA6122E072782100C9B23800C0B200F039
:101A80001DF801236A692000C0B2844668460178C7
:101A9000082041436046411818008840104368619F
:101AA000AA692000C0B284466846017808204143F4
:101AB0006046401883401343AB61F1BDF4B50200AA
:101AC000D2B2920883079B0F1D4C1500EDB204267D
:101AD000754364596D462D78002D0CD101270D00FA
:101AE000EDB2AC461E00F6B208256E436546AD1950
:101AF000AF40A7600BE001270D00EDB2AC461E0021
:101B0000F6B208256E436546AD19AF406760F1BD7A
:101B100070B40200D2B2920883079B0F084C1500E4
:101B2000EDB20426754364590D00EDB208265E43FC
:101B3000B540E56070BC70470C280000602C0000C8
:101B4000F82B000030B40307C024A4051C400B068A
:101B500080256D042B402343140580256D032C4004
:101B60001C438C4B1C6030BC704710B57F4C206808
:101B7000002806D169227E498848FFF723FA00BF72
:101B800000BF206810BD10B5FFF7EFFF002820D080
:101B900081490978C9B2C9084907490FC840804A34
:101BA00012781300DBB29B081A00D207D20F130081
:101BB000DBB2002B0DD00B00DBB2002B052B03D9C1
:101BC0009B1F012B02D902E0400902E001E0002343
:101BD000180010BD80B573480078C0B20100C90676
:101BE000C90F002902D1FFF7CEFF01E06E4800685F
:101BF00002BD10B56A48007800060CD55B4C206821
:101C0000002806D1CC225A496448FFF7DBF900BF0F
:101C100000BF206800E0002010BD10B500F06CF897
:101C20005C4C2168090F8907890F491CFEF761FA8E
:101C300022681100C901C90F491CFEF75AFA10BDEC
:101C400080B500F059F853490968090F8907890FD1
:101C5000491CFEF74EFA02BD80B500F04DF84D4923
:101C60000A681100C902C90F491CFEF742FA02BDF9
:101C700010B504002000C0B200280FD0022810D0F8
:101C80000CD3042810D00CD3062810D012D3082867
:101C900016D012D30A2819D015D31AE0FFF7D0FFB7
:101CA00018E0FFF7BAFF15E0FFF7A3FF12E000F01E
:101CB00052F80FE000F05EF80CE000F03FF809E0A9
:101CC00000F01AF806E0FFF7C7FF03E0FA208000F3
:101CD00000E0002010BD10B50400A27861782078E3
:101CE000FFF730FF46480168E2781204E023DB0288
:101CF00013400B43036010BD10B52A480078C0B2F2
:101D000080088407A40F2000C0B2002803D0022856
:101D100007D003D308E000F011F806E0224800687D
:101D200003E0FFF722FF00E000200121354A12788E
:101D3000D2B252099140FEF7DCF910BD80B53148AE
:101D40000078C00601D5002004E0FFF743FFA02182
:101D5000C900484302BD00B50F480078800701D490
:101D6000002001E02548006800BD000010F0FF1FC2
:101D7000CC27000010B5FFF72DFF0400FFF7BCFFD4
:101D80000100002C04D08808A04201D3200000E00C
:101D9000002010BD2480044000400640E02B0000DD
:101DA000005006400440064000F0FF1F00B501004F
:101DB0001A48027804231343037002789206920EA5
:101DC000027010480278D206D20E4B011343037002
:101DD000114802781300DB06DB0F002BF8D00278E5
:101DE00092089207920F002AF9D102785206FCD588
:101DF0000278802313430370002000BD00F0FF1F12
:101E0000048004400140064010B504002000C0B228
:101E1000FFF7CCFF10BD0000044006400040064024
:101E20007CB506000D0014002000C0B200280CD1C3
:101E3000154800886946488000AA921C2900C9B24A
:101E40003000C0B2FFF7DAFD0EE02000C0B201287A
:101E50000AD10E480088694608806A462900C9B23E
:101E60003000C0B2FFF7CAFD73BD38B505000C00E5
:101E700007480088694608806A462100C9B22800E0
:101E8000C0B2FFF7BBFD31BDD62C0000D82C00003E
:101E9000DA2C000038B505000C0001222100C9B27F
:101EA0002800C0B2FFF70AFE31BD38B505000C00AE
:101EB00000222100C9B22800C0B2FFF7FFFD31BDEA
:101EC00038B505000C0001222100C9B22800C0B2BB
:101ED000FFF7F4FD31BD38B505000C0000222100EC
:101EE000C9B22800C0B2FFF7E9FD31BD80B50021BD
:101EF000009100910099814204D200BF0099491CD1
:101F00000091F7E701BDF8B506000D001400069F2B
:101F1000012229003000C0B2FFF782FF00992000A3
:101F2000C0B2FFF7A2FF29003000C0B2FFF7B2FF36
:101F30003800FFF7DBFF00992000C0B2FFF7C0FFB9
:101F4000F1BDF8B506000D001700069C012229001E
:101F50003000C0B2FFF764FF2000FFF7C7FF290081
:101F60003000C0B2FFF796FF2000FFF7BFFF0099D7
:101F70003800C0B2FFF7A4FF2000FFF7B7FF290029
:101F80003000C0B2FFF791FF2000FFF7AFFF0099CC
:101F90003800C0B2FFF79FFF2000FFF7A7FFF1BD99
:101FA000F8B506000D001700069C0122290030003C
:101FB000C0B2FFF735FF2000FFF798FF290030007F
:101FC000C0B2FFF772FF2000FFF790FF00993800C2
:101FD000C0B2FFF775FF2000FFF788FF290030002F
:101FE000C0B2FFF757FF2000FFF780FFF1BDFBB540
:101FF0001700089E099C0122019968460078FFF7A6
:102000000FFF3000FFF772FF00252800C0B208283C
:102010001FDA200605D4019968460078FFF745FFCE
:1020200004E0019968460078FFF734FF0299380010
:10203000C0B2FFF745FF3000FFF758FF02993800A4
:10204000C0B2FFF748FF64003000FFF74FFF6D1C80
:10205000DBE7019968460078FFF727FF029938000F
:10206000C0B2FFF72DFF3000FFF740FF02993800A4
:10207000C0B2FFF730FF3000FFF738FFF7BDF1B512
:1020800082B00F0016001D00089C00942B00320047
:10209000D2B239006846007AFFF753FFD020019092
:1020A00000942B003200D2B239006846007AFFF764
:1020B0009EFF09A80078019000942B003200D2B254
:1020C00039006846007AFFF792FF0AA8007801906D
:1020D00000942B003200D2B239006846007AFFF734
:1020E00086FF00942B003200D2B239006846007A95
:1020F000FFF756FFF7BDF1B584B00F0016001D00C5
:102100000A9C202002900820019000942B003200AD
:10211000D2B239006846007CFFF7B1FF452002903B
:102120000920019000942B003200D2B23900684699
:10213000007CFFF7A4FF05B0F0BDF1B582B00F0041
:1021400016001D00089C00942B003200D2B239000A
:102150006846007AFFF7D7FE00942B003200D2B217
:1021600039006846007AFFF7C6FFF7BD00B5BFF338
:102170004F8FAE48B8490860BFF34F8F00BFFDE7EF
:10218000B6480068704738B500F045F800F04BF8E5
:10219000B34DB44C01230022A11D2800FFF7FCFB26
:1021A00001230122E11D2800FFF7F6FB0123022293
:1021B000210008312800FFF7EFFB0123032200A9CB
:1021C000C91C2800FFF7E8FB0123042200A9891C91
:1021D0002800FFF7E1FB0123082200A9491C280081
:1021E000FFF7DAFB0123092269462800FFF7D4FB39
:1021F000C0204002E060A079012808D1E0790128E0
:1022000005D1207A012802D100F01AF801E000F08F
:102210000FF9002032BD80B500F048F900F0FAF95E
:1022200000F01AFA01BD80B58D48FFF733FA14208B
:1022300000900123042200210420FFF77EFF01BD4E
:10224000FEB5382400263500874F2A0021003800CB
:10225000FEF770FB854A26218348FEF71BFA824869
:10226000FEF7D6F801900198002801D000F01CF983
:102270007D48C06800907B48C168490A7C4A11606B
:10228000C068C005C00D7B4908607B4B009A802167
:1022900009027548FEF723F9002800D0C3E074480E
:1022A0000068002854D020210220FFF731FC734C35
:1022B000734F009B9BB23A6821006948FFF76CFBA3
:1022C00070480660016880291FD26F490A68A25CC5
:1022D0000B68E3185B781B0213430A68A218927814
:1022E00012041A430B68E318DB781B061343674D8F
:1022F000AC46026804256A436546AB500A68121D65
:102300000A600168491C0160DCE75F480660604CB8
:10231000594B009A21685448FEF7E1F88025AD003A
:102320002B005A4A21685048FEF737F9002809D196
:1023300020684019206057480168491C01603868CE
:102340004019386053480068494909688842AAD34F
:1023500048480068002840D020210220FFF7D8FB21
:10236000464C009B9BB24648026821003C48FFF760
:1023700013FB4448066044490E6006600268802AE8
:102380001CD20A68A25C0B68E3185B781B0213433B
:102390000A68A218927812041A430B68E318DB78D3
:1023A0001B061343394A076804256F43D3510A6853
:1023B000121D0A600268521C0260DFE70E60344C96
:1023C000294D2D4B009A21682800FEF788F800233C
:1023D0002E4A21682800FEF7E0F8224CA11D3000AB
:1023E00008703000E071270008373E702A4E012047
:1023F00030701B4D012300222800FFF702FA012351
:102400000122E11D2800FFF7FCF901230222390017
:102410002800FFF7F6F901230A2231002800FFF710
:10242000F0F9FFF7A3FEF7BD000000000400FA0575
:1024300038B51A480468802000020568184804600E
:1024400080210902174A116085F3088885F30988FD
:102450000068804731BD00000CED00E008F5FF1F6B
:102460000070074088F5FF1FD0F0FF1F002D3101DD
:1024700018F5FF1F1CF5FF1F6B66656B08F3FF1F48
:1024800004F0FF1F10F5FF1F14F5FF1F08F1FF1FD9
:1024900008F0FF1F0CF5FF1F9EF5FF1F04800000D2
:1024A00020F5FF1F08ED00E000B5FEE780B500F065
:1024B00007F800F02DF800F03AF800F05AF801BDE6
:1024C000E0B5404800886946C88001AA921C0521F1
:1024D0000220FFF793FA3C4800886946888001AAE9
:1024E00006210420FFF78AFA3848008869464880A8
:1024F00000AA921C00210720FFF780FA34480088C8
:10250000694608806A4601210720FFF777FA07BD70
:1025100080B530480088694608806A460321042057
:10252000FFF76CFA01212C4800F0A4F801BDE0B5DA
:102530002A4800886946888001AA00210020FFF708
:102540005DFA274800886946488000AA921C01214C
:102550000020FFF753FA23480088694608806A463E
:1025600003210820FFF74AFA01211F4800F082F8F2
:1025700007BDE0B51D4800886946C88001AA921CC5
:1025800002210020FFF73AFA19480088694688803E
:1025900001AA03210020FFF731FA16480088694696
:1025A000488000AA921C00210420FFF727FA124855
:1025B0000088694608806A4601210420FFF71EFA58
:1025C00007BD000032090000860900008A090000EA
:1025D000D60D0000C20F00002D0002007226000080
:1025E000CA270000F62A00002B000200022B000080
:1025F000D02C0000D22C0000D42C000080204004FD
:102600000F49086070470F490A78FC2313400343C1
:102610000B70704780B500F001F801BD10B5FFF7F1
:10262000EDFF094CE078FFF7EFFB6078FFF7EBFF79
:102630000648FFF750FB06480649086010BD000039
:102640002480044000400640C82C0000CC2C000030
:10265000006CDC020CF0FF1F10B50220FFF708FB36
:10266000040023000122E12149020120FEF78EF936
:1026700010BD0100F0B543095B075B0F164C044029
:1026800004281DDB85030DD4144D2E6801279F40BF
:102690007F1EA740BE4332000E00F6B2A64016438E
:1026A0002E6017E00E4D2E6801279F407F1EA74029
:1026B000BE4332000E00F6B2A64016432E6009E07B
:1026C000084D2E6801278740BE430F00FFB28740A8
:1026D00037432F60F0BD00001FFFFDFF0C8004405A
:1026E0001080044004800440433A5C557365727363
:1026F0005C41646D696E204D315C4465736B746F31
:10270000705C436F64654E616D70745C426F6F7492
:102710004C445C636F6D706F6E656E745C75617256
:10272000745C66736C5F616461707465725F75611F
:1027300072742E6300000000636F6E6669672D3E41
:10274000696E7374616E6365203C202873697A65D5
:102750006F6628735F55617274416461707465724D
:102760004261736529202F2073697A656F66285549
:102770004152545F54797065202A292900000000D5
:1027800080B50A480A4901800A4901800A480B4974
:1027900008800B4801784906490E20220A4302703E
:1027A00008480178017000F00FF801BD02200540D3
:1027B000C5200000D9280000FFFF000004200540CC
:1027C000002005400120054070470100433A5C5558
:1027D000736572735C41646D696E204D315C446554
:1027E000736B746F705C436F64654E616D70745C85
:1027F000426F6F744C445C647269766572735C6698
:10280000736C5F636C6F636B2E630000433A5C55BF
:10281000736572735C41646D696E204D315C446513
:10282000736B746F705C436F64654E616D70745C44
:10283000426F6F744C445C647269766572735C6657
:10284000736C5F6770696F2E63000000433A5C55DC
:10285000736572735C41646D696E204D315C4465D3
:10286000736B746F705C436F64654E616D70745C04
:10287000426F6F744C445C647269766572735C6617
:10288000736C5F7370692E6300000000433A5C55FF
:10289000736572735C41646D696E204D315C446593
:1028A000736B746F705C436F64654E616D70745CC4
:1028B000426F6F744C445C647269766572735C66D7
:1028C000736C5F756172742E63000000696E7374BF
:1028D000616E6365203C202873697A656F66287392
:1028E0005F737069426173657329202F2073697A61
:1028F000656F662828735F73706942617365732919
:102900005B305D2929000000C079704738B50A4D59
:102910002800FEF749FC2821014000290AD02800A0
:10292000FFF7F2FF04000548054902788C5401784E
:10293000491C017031BD000000C006409FF5FF1F1B
:1029400024F5FF1F70B40123002413E00168001D6B
:10295000194202D04D466918491E0C60091D121F0C
:10296000042AFAD20D00960701D50C80AD1C1A403E
:1029700000D02C700268001D002AE7D170BC70479F
:1029800000B58A0503D5026880239A430260CA0510
:1029900003D5426F80239A4342674A0503D5C26E2E
:1029A00080239A43C266026DCBB29A43026500BD92
:1029B00030B401220EE00368C318446808301442A2
:1029C00002D04D462C19641E1D6825601B1D241D58
:1029D000091FF9D10168001D0029ECD130BC7047F6
:1029E000415353455254204552524F5220222025E4
:1029F0007320223A2066696C652022257322204CC0
:102A0000696E652022256422200A000028636F6E0B
:102A100066696720213D20302920262620287372F0
:102A200063436C6F636B5F487A20213D20305529EA
:102A30000000000072B60548054901600A6882F38B
:102A400008880448804762B60348004708ED00E064
:102A500000000000812700006D2B000010B5074921
:102A600079441831064C7C44163404E0081D0A6889
:102A7000891888470100A142F8D110BD2C00000040
:102A80004C000000735F556172744164617074653D
:102A900072426173655B636F6E6669672D3E696E36
:102AA0007374616E63655D009DFEFFFF900500001D
:102AB00010F0FF1F00000000F9FEFFFF10000000F3
:102AC0000401000000F0FF1F0000000000F00DF8FE
:102AD000002801D0FFF7C2FF00BF00BF002000BFE9
:102AE00000BFFFF750FB00F002F80120704780B5EF
:102AF00000F002F801BD01000746384600F002F878
:102B0000FBE7010080B500BF00BF024A110018209A
:102B1000ABBEFBE72600020010B5002905D0046813
:102B20008C439340194021430160BFF36F8FBFF383
:102B30004F8F10BD696E7374616E6365203C2075A4
:102B40006172744172726179436F756E7400000036
:102B5000636F6E6669672D3E62617564526174656C
:102B60005F42707320213D2030550000054801462A
:102B700003B4684680F3098800BF00BF00BF00BFF0
:102B8000FFF7A4FFA5EDF5FE735F73706948616EF2
:102B9000646C655B305D20213D203000735F737095
:102BA0006948616E646C655B315D20213D203000B9
:102BB00080B5802189000248FFF7E2FE01BD0000D8
:102BC00000A003407C920000000060000080000034
:102BD00000366E0100A0064000B0064000C006406E
:102BE000675F7874616C3046726571008021017096
:102BF00002780A42FCD0704700F00F4040F00F40CE
:102C000080F00F407866657220213D203000000082
:102C1000636F6E66696720213D20300064617461D6
:102C200020213D203000000000A0064000B00640FA
:102C300000C0064014001400150014001600140013
:102C400068616E646C650000636F6E6669670000A2
:102C500064617461000000006C656E677468000058
:102C6000636F6E6669670000006007400070074090
:102C7000120014001300140000480047C12C00008B
:102C800000480047C12C00000048004725160000FE
:102C9000004800474916000000480047E5120000C0
:102CA00000480047F712000000480047C12C000010
:102CB00000480047C12C000000480047C12C00001C
:102CC00000480047C12C0000000203000001010081
:102CD000010001000100000001000100FEE7FEE725
:042CE000FEE7FEE726
:0400000500002A3598
:00000001FF
